:020000040800F2
:1000000000200020C50400088904000891040008AD
:1000100000000000000000000000000000000000E0
:10002000000000000000000000000000990400082B
:100030000000000000000000A3040008AD04000858
:10004000150500080000000015050008150500084A
:100050001505000815050008150500081505000818
:10006000000000001505000815050008150500082A
:10007000150500081505000815050008000000001A
:10008000150500080000000000000000150500082C
:1000900000000000150500081505000815050008FA
:1000A00015050008150500081505000815050008C8
:0800B000150500080000000026
:1000B80010B5064C2378002B07D1054B002B02D036
:1000C800044800E000BF0123237010BD0C0000208D
:1000D80000000000601F0008044B10B5002B03D07F
:1000E8000349044800E000BF10BDC04600000000FE
:1000F80010000020601F0008002243088B4274D3C0
:1001080003098B425FD3030A8B4244D3030B8B4210
:1001180028D3030C8B420DD3FF22090212BA030C19
:100128008B4202D31212090265D0030B8B4219D3FA
:1001380000E0090AC30B8B4201D3CB03C01A52411A
:10014800830B8B4201D38B03C01A5241430B8B4262
:1001580001D34B03C01A5241030B8B4201D30B034B
:10016800C01A5241C30A8B4201D3CB02C01A524172
:10017800830A8B4201D38B02C01A5241430A8B4235
:1001880001D34B02C01A5241030A8B4201D30B021E
:10019800C01A5241CDD2C3098B4201D3CB01C01A38
:1001A800524183098B4201D38B01C01A5241430942
:1001B8008B4201D34B01C01A524103098B4201D330
:1001C8000B01C01A5241C3088B4201D3CB00C01A9D
:1001D800524183088B4201D38B00C01A5241430815
:1001E8008B4201D34B00C01A5241411A00D201463A
:1001F800524110467047FFE701B5002000F006F8AD
:1002080002BDC0460029F7D076E770477047C04660
:1002180080B500AF00F07CF900F05CF800F0B4F8AD
:10022800002001F06FFB002001F0C0FA012201213B
:10023800002001F005FB244B1900002001F012FEFC
:1002480001220221002001F0FBFA204B19000020B6
:1002580001F008FE002001F03DFE1D4B180000F0E3
:10026800DDF9002001F036FE194B180000F0D6F930
:10027800002001F02FFE164B180000F0CFF90020E7
:1002880001F028FE124B180000F0C8F9002001F018
:100298000BFE0F4B180000F0C1F9002001F004FE1E
:1002A8000B4B180000F0BAF9002001F0FDFD084BD7
:1002B800180000F0B3F9002001F0F6FD044B180017
:1002C80000F0ACF9C046C5E7781F0008841F000895
:1002D800DC05000090B593B000AF14243B1918005A
:1002E80034231A00002101F00BFE3B1D18001023D7
:1002F8001A00002101F004FE80239B00180000F082
:10030800E7FB3B1902221A603B1980225200DA608F
:1003180021007B1800221A617B1840225A617B1841
:100328000222DA617B1802221A627B1800225A62C2
:100338007B1808229A627B1880229202DA627B1864
:10034800802292051A637B18180000F001FC031E36
:1003580001D000F06BF83B1D07221A603B1D0222FA
:100368005A603B1D00229A603B1D0022DA603B1D4B
:100378000221180000F0FCFE031E01D000F056F820
:10038800C046BD4613B090BD90B589B000AF0C24EF
:100398003B19180014231A00002101F0B1FD204B6D
:1003A8005A6B1F4B20210A435A631D4B5B6B20225B
:1003B8001340BB60BB681A4B5A6B194B02210A43A6
:1003C8005A63174B5B6B022213407B607B68144BAC
:1003D8005A6B134B01210A435A63114B5B6B012281
:1003E80013403B603B680F490F4B0022180000F098
:1003F80051FB21007B180B4A1A607B1801225A60B6
:100408007B1800229A607B180022DA607B18064A63
:100418001900100000F0DAF9C046BD4609B090BDD9
:1004280000100240047C00000004005080B500AFBA
:1004380072B6C046C046FDE780B582B000AF0F4B2C
:100448001A6C0E4B01210A431A640C4B1B6C0122D7
:1004580013407B607B68094BDA6B084B80214905A8
:100468000A43DA63054BDA6B80235B0513403B6074
:100478003B68C046BD4602B080BDC0460010024081
:1004880080B500AFC046FDE780B500AFC046FDE7C8
:1004980080B500AFC046BD4680BD80B500AFC04640
:1004A800BD4680BD80B500AF00F09CF8C046BD4693
:1004B80080BD80B500AFC046BD4680BD0D488546AD
:1004C800FFF7F7FF0C480D490D4A002302E0D45806
:1004D800C4500433C4188C42F9D30A4A0A4C002386
:1004E80001E013600432A242FBD301F011FDFFF7D3
:1004F8008FFEFEE700200020000000200C000020F6
:10050800102000080C0000202C000020FEE700004E
:1005180080B582B000AFFB1D00221A700B4B1A6821
:100528000A4B802149000A431A60032000F010F8A2
:10053800031E03D0FB1D01221A7001E0FFF77CFFA8
:10054800FB1D1B781800BD4602B080BD002002408C
:1005580090B585B000AF78600F23FB1800221A70A1
:100568001D4B1B78002B2BD01C4B1C681A4B1B787F
:100578001900FA239800FFF7BFFD030019002000B7
:10058800FFF7BAFD0300180000F013F9031E12D19B
:100598007B68032B0AD8796801235B420022180084
:1005A80000F0F2F80E4B7A681A600DE00F23FB1882
:1005B80001221A7008E00F23FB1801221A7003E0C9
:1005C8000F23FB1801221A700F23FB181B78180041
:1005D800BD4605B090BDC0460800002000000020C0
:1005E8000400002080B500AF054B1B781A00054BAE
:1005F8001B68D218034B1A60C046BD4680BDC04672
:10060800080000202800002080B500AF024B1B68BE
:100618001800BD4680BDC0462800002080B584B0C3
:1006280000AF7860FFF7F0FF0300BB607B68FB60FA
:10063800FB68013305D00A4B1B781A00FB689B182E
:10064800FB60C046FFF7E0FF0200BB68D31AFA68F8
:100658009A42F7D8C046C046BD4604B080BDC046E1
:100668000800002090B583B000AF02003960FB1D80
:100678001A70FB1D1B787F2B28D82F4AFB1D1B786F
:100688005BB29B08C0339B009B58FA1D127811007F
:1006980003220A40D200FF2191400A00D2431A40A7
:1006A80011003B689B01FF221A40FB1D1B781800B4
:1006B80003230340DB009A401F48FB1D1B785BB2F5
:1006C8009B080A43C0339B001A5031E01B4AFB1DAC
:1006D8001B7819000F230B40083B9B0806339B002F
:1006E800D31804331B68FA1D1278110003220A403C
:1006F800D200FF2191400A00D2431A4011003B6802
:100708009B01FF221A40FB1D1B781800032303409E
:10071800DB009A400948FB1D1B781C000F2323406F
:10072800083B9B080A4306339B00C31804331A602E
:10073800C046BD4603B090BD00E100E000ED00E01A
:1007480080B582B000AF78607B685A1E80235B0456
:100758009A4201D3012310E00A4B7A68013A5A60A1
:1007680001235B4203211800FFF77CFF054B0022A1
:100778009A60044B07221A6000231800BD4602B095
:1007880080BDC04610E000E080B584B000AFB9601D
:100798007A600F217B18021C1A70BA687B181B78C4
:1007A8005BB211001800FFF75DFFC046BD4604B0FC
:1007B80080BD80B582B000AF78607B681800FFF715
:1007C800BFFF03001800BD4602B080BD80B586B0EB
:1007D80000AF7860396000237B6147E13B681B68A4
:1007E80001217A6991400A001340FB60FB68002BE5
:1007F80000D138E13B685B6803221340012B05D028
:100808003B685B6803221340022B30D17B689B68EE
:100818003B617B695B0003229A401300DA433B6922
:1008280013403B613B68DA687B695B009A401300C0
:100838003A6913433B617B683A699A607B685B68F5
:100848003B6101227B699A401300DA433B691340FC
:100858003B613B685B681B0901221A407B699A402F
:1008680013003A6913433B617B683A695A603B68F5
:100878005B6803221340032B17D07B68DB683B615E
:100888007B695B0003229A401300DA433B691340FB
:100898003B613B689A687B695B009A4013003A6940
:1008A80013433B617B683A69DA603B685B68032203
:1008B8001340022B23D17B69DA087B680832920047
:1008C800D3583B617B69072213409B000F229A4053
:1008D8001300DA433B6913403B613B681A697B6943
:1008E80007210B409B009A4013003A6913433B6170
:1008F8007B69DA087B68083292003969D1507B68D5
:100908001B683B617B695B0003229A401300DA4352
:100918003B6913403B613B685B6803221A407B6973
:100928005B009A4013003A6913433B617B683A695C
:100938001A603B685A68C0239B02134000D192E0BA
:10094800504A7B699B0818339B009B583B617B6925
:1009580003221340DB000F229A401300DA433B695D
:1009680013403B617A68A023DB059A4213D07B6869
:10097800454A93420DD07B68444A934207D07B682E
:10098800434A934201D1032306E0052304E00223EE
:1009980002E0012300E000237A6903210A40D20023
:1009A80093403A6913433B6136497B699B08183386
:1009B8009B003A695A50334B1B683B61FB68DA432A
:1009C8003B6913403B613B685A6880235B031340D3
:1009D80003D03A69FB6813433B612A4B3A691A60B2
:1009E800284B5B683B61FB68DA433B6913403B611A
:1009F8003B685A6880239B03134003D03A69FB681D
:100A080013433B611F4B3A695A601E4A8423D358EB
:100A18003B61FB68DA433B6913403B613B685A68BA
:100A280080239B02134003D03A69FB6813433B6160
:100A3800144984223B698B50124A8023D3583B6166
:100A4800FB68DA433B6913403B613B685A68802383
:100A58005B02134003D03A69FB6813433B610949C1
:100A680080223B698B507B6901337B613B681A6844
:100A78007B69DA40131E00D0B0E6C046C046BD46CA
:100A880006B080BD00180240000400500008005065
:100A9800000C005080B582B000AF786008001100EB
:100AA800BB1C021C1A807B1C0A1C1A707B1C1B783E
:100AB800002B04D0BB1C1A887B689A6103E0BB1C1E
:100AC8001A887B689A62C046BD4602B080BD0000A5
:100AD80080B584B000AF7860194B1B68194A134081
:100AE8001900174B7A680A431A607A6880239B00BA
:100AF8009A421FD1144B1A6813005B009B185B00C5
:100B080012491800FFF7F8FA03000133FB6008E008
:100B1800FB68002B03D0FB68013BFB6001E003236B
:100B280009E0074B5A698023DB001A408023DB0069
:100B38009A42EDD000231800BD4604B080BDC046DF
:100B480000700040FFF9FFFF0000002040420F0046
:100B580080B588B000AF78607B68002B01D1012395
:100B6800F3E27B681B680122134000D17CE0C34B91
:100B78009B6838221340BB61C04BDB6803221340DB
:100B88007B61BB69102B02D17B69032B02D0BB6947
:100B9800082B0BD1B94B1A6880239B02134062D0F3
:100BA8007B685B68002B5ED10123CEE27B685A68C4
:100BB80080235B029A4207D1B04B1A68AF4B802161
:100BC80049020A431A6020E07B685A68A023DB02C6
:100BD8009A420ED1A94B1A68A84B8021C9020A4330
:100BE8001A60A64B1A68A54B802149020A431A606D
:100BF8000BE0A24B1A68A14BA1490A401A609F4B0F
:100C08001A689E4B9F490A401A607B685B68002BF4
:100C180014D0FFF7F9FC03003B6108E0FFF7F4FC90
:100C280002003B69D31A642B01D903238DE2934B4D
:100C38001A6880239B021340F0D015E0FFF7E4FC0C
:100C480003003B6108E0FFF7DFFC02003B69D31AB1
:100C5800642B01D9032378E2884B1A6880239B020E
:100C68001340F0D100E0C0467B681B6802221340A5
:100C780000D199E0814B9B6838221340BB617F4BC0
:100C8800DB68032213407B61BB69102B02D17B69AF
:100C9800022B02D0BB69002B35D1784B1A68802310
:100CA800DB00134005D07B68DB68002B01D10123F2
:100CB8004BE2724B5B68744A134019007B685B69AE
:100CC8001A026E4B0A435A60BB69002B12D16B4B58
:100CD8001B686E4A134019007B681A69674B0A4300
:100CE8001A60664B1B68DB0A07221340684ADA4021
:100CF800684B1A60684B1B681800FFF729FC031E35
:100D080051D0012321E27B68DB68002B30D05B4B9C
:100D18001B685E4A134019007B681A69574B0A43DF
:100D28001A60564B1A68554B802149000A431A60CD
:100D3800FFF76AFC03003B6108E0FFF765FC02006F
:100D48003B69D31A022B01D90323FEE14B4B1A68E6
:100D58008023DB001340F0D0484B5B684A4A1340BD
:100D680019007B685B691A02444B0A435A601BE00E
:100D7800424B1A68414B49490A401A60FFF744FC44
:100D880003003B6108E0FFF73FFC02003B69D31A10
:100D9800022B01D90323D8E1384B1A688023DB00E2
:100DA8001340F0D100E0C0467B681B68082213405E
:100DB80047D0324B9B6838221340182B0AD12F4B4F
:100DC8001B6E022213403CD07B689B69002B38D1F4
:100DD8000123BAE17B689B69002B19D0274B1A6E57
:100DE800264B01210A431A66FFF70EFC03003B61FC
:100DF80008E0FFF709FC02003B69D31A022B01D96E
:100E08000323A2E11D4B1B6E02221340F1D018E010
:100E18001A4B1A6E194B01218A431A66FFF7F4FB25
:100E280003003B6108E0FFF7EFFB02003B69D31AC0
:100E3800022B01D9032388E1104B1B6E02221340B9
:100E4800F1D17B681B680422134000D1C6E01F2340
:100E5800FB1800221A70094B9B6838221340202B7C
:100E68001ED1064BDB6D0222134000D1B6E07B6831
:100E78009B68002B00D0B1E0012366E1001002401E
:100E8800FFFFFEFFFFFFFBFFFF80FFFFFFC7FFFF26
:100E98000024F4000000002004000020FFFEFFFFF3
:100EA800AC4BDA6B80235B05134001D1012300E0D2
:100EB8000023002B11D0A74BDA6BA64B80214905E4
:100EC8000A43DA63A34BDA6B80235B051340FB60AC
:100ED800FB681F23FB1801221A709F4B1A68802396
:100EE8005B0013401AD19C4B1A689B4B8021490028
:100EF8000A431A60FFF788FB03003B6108E0FFF72D
:100F080083FB02003B69D31A022B01D903231CE19E
:100F1800914B1A6880235B001340F0D07B689B6874
:100F2800012B06D18B4BDA6D8A4B01210A43DA6516
:100F38001CE07B689B68052B0CD1864BDA6D854BD2
:100F480004210A43DA65834BDA6D824B01210A4397
:100F5800DA650BE07F4BDA6D7E4B01218A43DA6557
:100F68007C4BDA6D7B4B04218A43DA657B689B688E
:100F7800002B14D0FFF748FB03003B6109E0FFF7A3
:100F880043FB02003B69D31A744A934201D90323F5
:100F9800DBE0704BDB6D02221340F0D013E0FFF76B
:100FA80033FB03003B6109E0FFF72EFB02003B69BE
:100FB800D31A6A4A934201D90323C6E0654BDB6D15
:100FC80002221340F0D11F23FB181B78012B05D1F7
:100FD800604BDA6B5F4B62490A40DA637B68DB6916
:100FE800002B00D1B0E05B4B9B6838221340102BDC
:100FF80000D178E07B68DB69022B53D1554B1A6826
:10100800544B58490A401A60FFF7FEFA03003B6147
:1010180008E0FFF7F9FA02003B69D31A022B01D95D
:10102800032392E04B4B1A6880239B041340F0D1B2
:10103800484BDB684C4A134019007B681A6A7B6886
:101048005B6A1A437B689B6A1B021A437B68DB6AEC
:101058001A437B681B6B1A433E4B0A43DA603D4BCD
:101068001A683C4B802149040A431A60394BDA68F4
:10107800384B802149050A43DA60FFF7C5FA0300B7
:101088003B6108E0FFF7C0FA02003B69D31A022B64
:1010980001D9032359E02F4B1A6880239B0413407E
:1010A800F0D051E02B4B1A682A4B2E490A401A609F
:1010B800FFF7AAFA03003B6108E0FFF7A5FA020070
:1010C8003B69D31A022B01D903233EE0214B1A684E
:1010D80080239B041340F0D11E4BDA681D4B234933
:1010E8000A40DA6030E07B68DB69012B01D101231B
:1010F8002BE0184BDB687B617B6903221A407B6815
:101108001B6A9A421ED17B6970221A407B685B6A0F
:101118009A4217D17A69FE23DB011A407B689B6AE1
:101128001B029A420ED17A69F8239B031A407B6806
:10113800DB6A9A4206D17B695B0F5A077B681B6B97
:101148009A4201D0012300E000231800BD4608B0F0
:1011580080BDC046001002400070004088130000A7
:10116800FFFFFFEFFFFFFFFE8C80C11FFCFFFEEFBC
:1011780080B584B000AF786039607B68002B01D1FE
:101188000123E9E0764B1B68072213403A689A422C
:101198001ED9734B1B68072293431900704B3A689A
:1011A8000A431A60FFF730FA0300FB6009E0FFF713
:1011B8002BFA0200FB68D31A6A4A934201D9032327
:1011C800CAE0674B1B68072213403A689A42EED17F
:1011D8007B681B680222134015D07B681B680422B9
:1011E800134006D0604B9A685F4BE021C9010A435F
:1011F8009A605D4B9B685D4A134019007B689A684A
:10120800594B0A439A607B681B680122134057D0E8
:101218007B685B68012B07D1534B1A6880239B02BC
:1012280013402BD1012397E07B685B68022B07D121
:101238004D4B1A6880239B0413401FD101238BE078
:101248007B685B68002B07D1474B1A688023DB005B
:10125800134013D101237FE07B685B68032B06D121
:10126800414B1B6E0222134008D1012374E03E4B10
:10127800DB6D0222134001D101236DE03A4B9B68DC
:101288000722934319007B685A68374B0A439A60D0
:10129800FFF7BAF90300FB6009E0FFF7B5F90200B0
:1012A800FB68D31A2F4A934201D9032354E02E4BEB
:1012B8009B6838221A407B685B68DB009A42ECD155
:1012C800274B1B68072213403A689A421ED2244BC8
:1012D8001B68072293431900214B3A680A431A6096
:1012E800FFF792F90300FB6009E0FFF78DF90200B0
:1012F800FB68D31A1B4A934201D903232CE0184BED
:101308001B68072213403A689A42EED17B681B6833
:101318000422134009D0144B9B68154A1340190046
:101328007B68DA68104B0A439A6000F029F80100DC
:101338000D4B9B681B0A0F221A400E4B9200D35884
:101348001F2213400A00DA400B4B1A600B4B1B6834
:101358001800FFF7FDF803001800BD4604B080BD73
:10136800002002408813000000100240FFF0FFFF39
:10137800FF8FFFFF941F00080000002004000020DA
:1013880080B586B000AF3C4B9B68382213400FD124
:10139800394B1B68DB0A0722134001229A401300CD
:1013A8003B6039683548FEF7A7FE03003B615DE006
:1013B800314B9B6838221340082B02D1304B3B61DC
:1013C80054E02D4B9B6838221340102B38D12A4B00
:1013D800DB6803221340FB60274BDB681B090722ED
:1013E80013400133BB60FB68032B0DD1B968244857
:1013F800FEF782FE030019001F4BDB681B0A7F22E1
:1014080013404B437B610DE0B9681C48FEF774FE3E
:1014180003001900184BDB681B0A7F2213404B435B
:101428007B61C046144BDB685B0F07221340013316
:101438007B6079687869FEF75FFE03003B6115E021
:101448000D4B9B6838221340202B03D180231B02AD
:101458003B610BE0084B9B6838221340182B03D1E3
:10146800FA23DB013B6101E000233B613B69180083
:10147800BD4606B080BDC046001002400024F400FE
:1014880000127A0080B582B000AF0200FB1D1A700E
:10149800BB1D0A1C1A70BB1D1B780122134014D0F7
:1014A800FB1D1B785A4A34214B43D3180433186860
:1014B800FB1D1B78564A34214B43D31808331B882D
:1014C80001221900FFF7E6FA13E0FB1D1B78504ACA
:1014D80034214B43D31804331868FB1D1B784C4A3E
:1014E80034214B43D31808331B8800221900FFF717
:1014F800D1FABB1D1B780222134014D0FB1D1B78A8
:10150800434A34214B43D3180C331868FB1D1B780E
:101518003F4A34214B43D31810331B88012219004A
:10152800FFF7B8FA13E0FB1D1B78394A34214B4307
:10153800D3180C331868FB1D1B78354A34214B43EC
:10154800D31810331B8800221900FFF7A3FABB1D1C
:101558001B780422134014D0FB1D1B782C4A34211D
:101568004B43D31814331868FB1D1B78284A3421C1
:101578004B43D31818331B8801221900FFF78AFA46
:1015880013E0FB1D1B78224A34214B43D318143334
:101598001868FB1D1B781E4A34214B43D318183397
:1015A8001B8800221900FFF775FABB1D1B7808225B
:1015B800134014D0FB1D1B78154A34214B43D31814
:1015C8001C331868FB1D1B78114A34214B43D31870
:1015D80020331B8801221900FFF75CFA13E0FB1D7A
:1015E8001B780B4A34214B43D3181C331868FB1D56
:1015F8001B78074A34214B43D31820331B88002219
:101608001900FFF747FAC046BD4602B080BDC04684
:10161800D41F000890B589B000AF0200FB1D1A70F6
:10162800BB1D0A1C1A70FB1D1B785C4A34214B43F6
:10163800D3182C331868FB1D1B78584A34214B43A8
:10164800D31830331B8800221900FFF723FABB1D7B
:101658001A78FB1D1B7811001800FFF713FFFB1DFC
:101668001B784E4A34214B43D31824331868FB1D8A
:101678001B784A4A34214B43D31828331B8800224D
:101688001900FFF707FA464B9B68FB61454B1B683F
:1016980045491800FEF730FD03001A0013009B00AF
:1016A8009C18404B1B6840491800FEF725FD0300B5
:1016B8005B08E31ABB613A4B9B68FA69D31ABA69AB
:1016C8009A42F8D8FB1D1B78344A34214B43D3186F
:1016D80024331868FB1D1B78304A34214B43D31838
:1016E80028331B8801221900FFF7D4F92C4B9B687B
:1016F8007B612C4B1B682C491800FEF7FDFC03008E
:101708001A0013009B009C18264B1B6826491800DA
:10171800FEF7F2FC03005B08E31A3B61204B9B6871
:101728007A69D31A3A699A42F8D8FB1D1B781B4A82
:1017380034214B43D31824331868FB1D1B78174AF0
:1017480034214B43D31828331B8800221900FFF794
:10175800A1F9134B9B68FB60124B1B6812491800D8
:10176800FEF7CAFC03001A00642353431C000D4B08
:101778001B680D491800FEF7BFFC03005B08E31A5D
:10178800BB60074B9B68FA68D31ABA689A42F8D8C4
:10179800C046C046BD4609B090BDC046D41F00082B
:1017A80010E000E00000002040420F0090B587B034
:1017B80000AF0200FB1D1A70FB1D1B7800211800EA
:1017C800FFF728FFFB1D1B7801211800FFF722FFF8
:1017D80000237B6125E0174B9B683B61164B1B6818
:1017E80016491800FEF788FC03001A0013005B0175
:1017F8009B1A9B009B18DB001C000F4B1B680F49B2
:101808001800FEF779FC03005B08E31AFB60094B3C
:101818009B683A69D31AFA689A42F8D87B69013307
:101828007B617B69012BD6D9C046C046BD4607B04F
:1018380090BDC04610E000E00000002040420F00CC
:1018480090B585B000AF040008001100FB1D221CF4
:101858001A70BB1D021C1A707B1D0A1C1A70BB1D56
:101868001B78012B22D10F217B187A1D12787F3229
:101878001A700E203B187A18127812091A700D2463
:101888003B197A1812780F210A401A703B181A78F7
:10189800FB1D1B7811001800FFF7BCFE3B191A78D6
:1018A800FB1D1B7811001800FFF7B4FEBB1D1B7849
:1018B800022B22D10F217B187A1D1278413A1A7017
:1018C8000E203B187A18127812091A700D243B1949
:1018D8007A1812780F210A401A703B181A78FB1DE3
:1018E8001B7811001800FFF795FE3B191A78FB1DAD
:1018F8001B7811001800FFF78DFEC046BD4605B0E5
:1019080090BD000090B58FB000AF0200FB1D1A70AB
:10191800C046FEF779FE0300312BFAD9FB1D1B7870
:101928008D4A34214B43D3182C331868FB1D1B7880
:10193800894A34214B43D31830331B8800221900BD
:10194800FFF7A8F8FB1D1B78834A34214B43D318B3
:1019580024331868FB1D1B787F4A34214B43D31866
:1019680028331B8800221900FFF794F8FB1D1B7809
:1019780000211800FFF786FD00237B6325E0774BE5
:101988009B683B61764B1B6876491800FEF7B4FBF1
:1019980003001A0013005B019B1A9B009B18DB00D5
:1019A8001C006F4B1B686F491800FEF7A5FB03006E
:1019B8005B08E31AFB60694B9B683A69D31AFA68BB
:1019C8009A42F8D87B6B01337B637B6B952BD6D916
:1019D800FB1D1B7803211800FFF71CFE00233B6347
:1019E80025E05E4B9B68BB615D4B1B685D49180039
:1019F800FEF782FB03001A0013005B019B1A9B0091
:101A08009B18DB001C00564B1B6856491800FEF754
:101A180073FB03005B08E31A7B61504B9B68BA6950
:101A2800D31A7A699A42F8D83B6B01333B633B6B14
:101A3800042BD6D9FB1D1B7803211800FFF7EAFDFC
:101A48000023FB6225E0454B9B683B62444B1B68C7
:101A580044491800FEF750FB03001A0013005B010D
:101A68009B1A9B009B18DB001C003D4B1B683D49E3
:101A78001800FEF741FB03005B08E31AFB61374BD4
:101A88009B683A6AD31AFA699A42F8D8FB6A013312
:101A9800FB62FB6A042BD6D9FB1D1B7803211800B7
:101AA800FFF7B8FD2D4B9B68BB622D4B1B682D497A
:101AB8001800FEF721FB03001A00962353431C006D
:101AC800274B1B6827491800FEF716FB03005B0825
:101AD800E31A7B62214B9B68BA6AD31A7A6A9A42E4
:101AE800F8D8FB1D1B7802211800FFF793FDFB1D9A
:101AF8001B7802211800FFF78DFDFB1D1B780821BC
:101B08001800FFF787FDFB1D1B7800211800FFF761
:101B180081FDFB1D1B780C211800FFF77BFDFB1DC9
:101B28001B7800211800FFF775FDFB1D1B780621A7
:101B38001800FFF76FFDFB1D1B7800211800FFF749
:101B480069FDFB1D1B7801211800FFF763FDC046E6
:101B5800BD460FB090BDC046D41F000810E000E09D
:101B68000000002040420F0090B591B000AF020085
:101B7800FB1D1A70BB1D0A1C1A703F23FB18BA1DE7
:101B880012780F210A401A703E243B19BA1D1278A8
:101B98000F218A431A70FB1D1B78AE4A34214B4330
:101BA800D3182C331868FB1D1B78AA4A34214B43E1
:101BB800D31830331B8801221900FEF76BFF3B193D
:101BC8001B781B09DAB2FB1D1B7811001800FFF700
:101BD80059FCFB1D1B789F4A34214B43D3182433EF
:101BE8001868FB1D1B789B4A34214B43D3182833B4
:101BF8001B8800221900FEF74DFF974B9B68BB63BB
:101C0800964B1B6896491800FEF776FA03001A00EF
:101C180013009B009C18914B1B6891491800FEF714
:101C28006BFA03005B08E31A7B638B4B9B68BA6B08
:101C3800D31A7A6B9A42F8D8FB1D1B78854A34214F
:101C48004B43D31824331868FB1D1B78814A342171
:101C58004B43D31828331B8801221900FEF71AFFBB
:101C68007D4B9B683B637D4B1B687D491800FEF7E5
:101C780043FA03001A0013009B009C18774B1B685B
:101C880077491800FEF738FA03005B08E31AFB628D
:101C9800714B9B683A6BD31AFA6A9A42F8D8FB1DC3
:101CA8001B786C4A34214B43D31824331868FB1D26
:101CB8001B78684A34214B43D31828331B880022E9
:101CC8001900FEF7E7FE644B9B68BB62634B1B6819
:101CD80063491800FEF710FA03001A0064235343FF
:101CE8001C005E4B1B685E491800FEF705FA0300EE
:101CF8005B08E31A7B62584B9B68BA6AD31A7A6A04
:101D08009A42F8D83F23FB181A78FB1D1B7811005C
:101D18001800FFF7B7FBFB1D1B784E4A34214B43D5
:101D2800D31824331868FB1D1B784A4A34214B43C7
:101D3800D31828331B8800221900FEF7ABFE464B48
:101D48009B683B62454B1B6845491800FEF7D4F970
:101D580003001A0013009B009C18404B1B68404965
:101D68001800FEF7C9F903005B08E31AFB613A4B58
:101D78009B683A6AD31AFA699A42F8D8FB1D1B780D
:101D8800344A34214B43D31824331868FB1D1B787D
:101D9800304A34214B43D31828331B8801221900B9
:101DA800FEF778FE2C4B9B68BB612C4B1B682C49BB
:101DB8001800FEF7A1F903001A0013009B009C18F5
:101DC800264B1B6826491800FEF796F903005B08A6
:101DD800E31A7B61204B9B68BA69D31A7A699A42E5
:101DE800F8D8FB1D1B781B4A34214B43D3182433E6
:101DF8001868FB1D1B78174A34214B43D318283326
:101E08001B8800221900FEF745FE134B9B683B61B7
:101E1800124B1B6812491800FEF76EF903001A00EE
:101E2800642353431C000D4B1B680D491800FEF733
:101E380063F903005B08E31AFB60074B9B683A6988
:101E4800D31AFA689A42F8D8C046C046BD4611B0BF
:101E580090BDC046D41F000810E000E0000000203C
:101E680040420F0080B584B000AF02003960FB1D0E
:101E78001A700023FB600CE0FB683A68D3181A78E4
:101E8800FB1D1B7811001800FFF76EFEFB6801337D
:101E9800FB60FB683A68D3181B78002BECD1C0466E
:101EA800C046BD4604B080BD80B582B000AF020018
:101EB800FB1D1A70FB1D1B7801211800FFF7AAFBF8
:101EC800FB1D1B7808211800FFF7A4FBC046BD4680
:101ED80002B080BD80B582B000AF0200FB1D1A7051
:101EE800FB1D1B7801211800FFF794FBFB1D1B78D5
:101EF8000C211800FFF78EFBC046BD4602B080BD1E
:101F080003008218934200D1704719700133F9E732
:101F180070B500260C4C0D4D641BA410A64209D1C7
:101F2800002600F019F80A4C0A4D641BA410A642BA
:101F380005D170BDB300EB5898470136EEE7B30002
:101F4800EB5898470136F2E70820000808200008F7
:101F58000C20000808200008F8B5C046F8BC08BCEA
:101F68009E467047F8B5C046F8BC08BC9E46704708
:101F7800202044656570426C7565000053544D33EC
:101F88003220436F75727365000000000000000086
:101F98000000000000000000000000000000000039
:101FA8000000000000000000000000000100000028
:101FB800020000000300000004000000060000000A
:101FC80007000000080000000900000000000000F1
:101FD8000004005000080000000400500010000039
:101FE80000040050002000000004005000400000E1
:101FF8000004005000040000000400500400000029
:04200800E1000008EB
:04200C00B90000080F
:0C2010000024F4000400000001000000A7
:04000005080004C526
:00000001FF
